:020000040800F2
:10000000B012002029020008F3050008EB050008E3
:10001000EF050008110400080B0D000800000000A7
:10002000000000000000000000000000E5070008DC
:10003000150400080000000081060008010A0008FD
:10004000430200084302000843020008430200087C
:10005000430200084302000831040008430200087C
:100060006504000891040008BD040008430200086C
:10007000430200084302000843020008430200084C
:10008000430200084302000843020008430200083C
:10009000430200084302000843020008430200082C
:1000A000430200084302000843020008430200081C
:1000B000430200084302000843020008430200080C
:1000C00043020008430200084302000843020008FC
:1000D00043020008890A000843020008430200089E
:1000E00043020008430200084302000843020008DC
:1000F00043020008430200084302000843020008CC
:1001000043020008430200084302000843020008BB
:1001100043020008430200084302000843020008AB
:10012000430200084302000843020008430200089B
:10013000430200084302000843020008430200088B
:10014000430200084302000843020008430200087B
:10015000430200084302000843020008430200086B
:10016000430200084302000843020008430200085B
:10017000430200084302000843020008430200084B
:10018000430200084302000800F002F800F03CF8C7
:100190000AA090E8000C82448344AAF10107DA45E2
:1001A00001D100F031F8AFF2090EBAE80F0013F0F8
:1001B000010F18BFFB1A43F001031847081800008D
:1001C00028180000103A24BF78C878C1FAD852071E
:1001D00024BF30C830C144BF04680C6070470000C1
:1001E0000023002400250026103A28BF78C1FBD840
:1001F000520728BF30C148BF0B6070471FB501F0E0
:10020000DBFB1FBD10B510BD00F0ADF81146FFF7C8
:10021000F5FF00F021FE00F0CBF803B4FFF7F2FF8A
:1002200003BC00F074FD00000948804709480047FE
:10023000FEE7FEE7FEE7FEE7FEE7FEE7FEE7FEE796
:10024000FEE7FEE704480549054A064B70470000F3
:10025000090A000889010008B00C0020B012002033
:10026000B00E0020B00E0020704710B5203AC0F04C
:100270000B80B1E81850203AA0E81850B1E81850A7
:10028000A0E81850BFF4F5AF5FEA027C24BFB1E8E4
:100290001850A0E8185044BF18C918C0BDE8104055
:1002A0005FEA827C24BF51F8043B40F8043B08BF5E
:1002B0007047D20728BF31F8023B48BF11F8012B25
:1002C00028BF20F8023B48BF00F8012B70474FF0D1
:1002D00000020429C0F0128010F0030C00F01E8010
:1002E000CCF1040CBCF1020F18BF00F8012BA8BF21
:1002F00020F8022BA1EB0C0100F010B85FEAC17CE2
:1003000024BF00F8012B00F8012B48BF00F8012B97
:1003100070477047704770474FF0000200B51346B2
:1003200094469646203922BFA0E80C50A0E80C5015
:10033000B1F12001BFF4F7AF090728BFA0E80C50C6
:1003400048BF0CC05DF804EB890028BF40F8042BBF
:1003500008BF704748BF20F8022B11F0804F18BF2C
:1003600000F8012B7047754600F028F8AE460500EE
:100370006946534620F00700854618B020B5FFF7C0
:1003800061FFBDE820404FF000064FF000074FF03E
:1003900000084FF0000B21F00701AC46ACE8C009A3
:1003A000ACE8C009ACE8C009ACE8C0098D467047AC
:1003B0000446AFF300802046FFF72FFF0048704748
:1003C000500C00203EB50EA207CA8DE807000F486A
:1003D00000798DF804009DF80310684600F0BCFC1D
:1003E0008DF80B00002405E01DF8040001F0D2FA9E
:1003F000601CC4B20C2CF7DB00F0C0FC3EBD00005A
:10040000EEEE000C0058075151444D003E0B002009
:1004100000BFFEE77047000001B50449009808607E
:1004200000BF024800680028FBD108BDA0000020E2
:1004300010B5012000F05EF860B10848084909785D
:1004400041F00101064A117000BF0100A0F1010056
:10045000FBD100BF012000F047F810BD802C8000C8
:10046000A400002010B5084C0848007840F00200B5
:100470000649087000BF2000A4F10104FBD104204C
:1004800000F032F810BD0000802C8000A400002095
:1004900010B5084C0848007840F004000649087080
:1004A00000BF2000A4F10104FBD1082000F01CF8DB
:1004B00010BD0000802C8000A400002010B5084C66
:1004C0000848007840F008000649087000BF200086
:1004D000A4F10104FBD1102000F006F810BD0000CB
:1004E000802C8000A40000200149086070470000B3
:1004F000143C014001460020034A12680A400AB138
:10050000012000E000207047143C0140F0B50A468D
:1005100000210023002400BF3DE0012505FA01F37E
:10052000156805EA03049C4234D105684F00032690
:10053000BE40B543056015794E00B54006683543A9
:1005400005601579012D02D01579022D16D1856827
:100550004F000326BE40B543856055794E00B54037
:10056000866835438560456801268E40B543456001
:10057000456896798E40B6B235434560C5684F00F0
:100580000326BE40B543C560D5794E00B540C66868
:100590003543C560491C1029BFD3F0BDF0B5002319
:1005A00000244D07ED0E02FA05F3CE1000F12005F0
:1005B00055F826504E07F70E0F26BE40B543CF1014
:1005C00000F1200646F82750CE1000F1200555F81E
:1005D000265045EA0304CE1000F1200545F82640D8
:1005E000F0BD418370470183704700BFFEE700BF45
:1005F000FEE7704770B5002100230F22C4781CB3BA
:10060000174C246804F4E064C4F5E064C4F30721E3
:10061000C1F10404E3B20A4144789C40E1B2847819
:10062000144021430C07210E0E4C057861550478C7
:1006300004F01F050124AC4005786D11AD0005F1F3
:10064000E025C5F8004109E0047804F01F05012405
:10065000AC40054D0678761145F8264070BD000087
:100660000CED00E000E400E080E100E0024901431D
:10067000024A1160704700000000FA050CED00E02E
:100680007047000029B1064A12680243044B1A6001
:1006900004E0034A12688243014B1A60704700006D
:1006A0003038024029B1064A12680243044B1A60EE
:1006B00004E0034A12688243014B1A60704700004D
:1006C00044380240F0B50021002200240225002613
:1006D0000223324F3F6807F00C0121B1042905D0F5
:1006E000082937D105E02E4F076036E02D4F07600F
:1006F00033E02A4F3F1F3F68C7F38056274F3F1F05
:100700003F6807F03F036EB1264FB7FBF3F7DFF802
:100710008CC0ACF1040CDCF800C0CCF3881C07FBE7
:100720000CF40CE01E4FB7FBF3F7DFF870C0ACF130
:10073000040CDCF800C0CCF3881C07FB0CF4174F4A
:100740003F1F3F68C7F301477F1C7D00B4FBF5F7EF
:10075000076002E0124F076000BF00BF0F4F3F6805
:1007600007F0F0010909104F7A5C0768D74047602D
:100770000A4F3F6807F4E051890A0B4F7A5C4768DB
:10078000D7408760054F3F6807F46041490B064F2B
:100790007A5C4768D740C760F0BD00000838024067
:1007A0000024F40000127A00A90000200246002074
:1007B000044B186820F0EC6042EA01031843014B37
:1007C000186070470838024002460020044B186841
:1007D00020F0784042EA01031843014B186070474B
:1007E00008380240704700000CB5002001900090CE
:1007F0003448006840F480303249086000BF314816
:10080000006800F4003000900198401C01900098AE
:1008100018B90198B0F5A04FF1D12A48006800F44A
:10082000003010B10120009001E0002000900098FD
:10083000012846D123484030006840F080502149CB
:10084000403108602048006840F440401E4908607C
:100850001C48083000681B490831086008460068D9
:1008600040F4004008600846006840F4A05008606A
:100870001648091F0860081F006840F08070091FB3
:10088000086000BF0F48006800F000700028F9D031
:1008900040F205700E4908600A480830006820F0F0
:1008A00003000849083108600846006840F002006B
:1008B000086000BF03480830006800F00C000828FA
:1008C000F8D10CBD003802400070004008544007C9
:1008D000003C024030B535230370012343700021F2
:1008E0008AE00024C1EBC105831C03EB45131C8087
:1008F000C1EBC105831C03EB45135C80C1EBC10553
:10090000831C03EB45139C80C1EBC105831C03EBE7
:1009100045139C711424C1EBC105831C03EB4513E3
:100920001C810424C1EBC105831C03EB45139C729D
:100930000024C1EBC105831C03EB45131C734FF46A
:10094000FA74C1EBC105831C03EB4513DC8104245D
:10095000C1EBC105831C03EB45131C740224C1EBDE
:10096000C105831C03EB45139C740124C1EBC10535
:10097000831C03EB4513DC743224C1EBC105831CDB
:1009800003EB45131C75002224E00024C1EBC105D4
:10099000831C03EB4513263302EB420503F8154095
:1009A0000224C1EBC105831C03EB4513263302EB84
:1009B000420503EB45035C803224C1EBC105831C77
:1009C00003EB4513263302EB420503EB45039C8002
:1009D000531CDAB21F2AD8DB002209E07F24C1EBC6
:1009E000C105831C03EB451316339C54531CDAB228
:1009F000102AF3DB4B1CD9B20C29FFF672AF30BDC5
:100A000010B500F035F810BD10B51548006840F479
:100A10007000134908601348006840F00100114954
:100A2000086000200F49083108600E4800680E4930
:100A300008400C4908600D48091D0860081F00683F
:100A400020F48020091F0860002006490C3108604E
:100A5000FFF7CAFE4FF0006001498039086010BD01
:100A600088ED00E000380240FFFFF6FE1030002461
:100A70000448006820B103480068401E014908602E
:100A800070470000A000002070B540F225512548B5
:100A900000F078F8012844D1002500F017FB054646
:100AA000681CB0B900BF01221F4B1A6000BF0020B4
:100AB00005E0002100E0491CFF29FCDB401C4FF64B
:100AC000FF729042F5DB00BF0022174B1A6000BF97
:100AD00021E0012D1FD100BF69021448FFF781FDFD
:100AE00000BF00BFA9021148FFF77BFD00BF00BF98
:100AF00069030F48FFF775FD00BF00BFA9030C484D
:100B0000FFF76FFD00BF002400E0641C4FF6FF708C
:100B10008442FADB00BF40F22551024800F00AF897
:100B200000BF70BD00100140A0824242001402408C
:100B30000010024010B50022002340F66A14A142C2
:100B400000D100BF0A1201249440A3B2DC43048008
:100B500010BD21B1828942F40052828104E0828971
:100B60004DF6FF731A408281704702460020B1F5AE
:100B7000007F00D100BF13880B400BB1012000E0C3
:100B80000020704770B50246002400230025002095
:100B900040F66A16B14200D100BFC1F3421501F020
:100BA0001F03012606FA03F3012D02D19689334073
:100BB00006E0022D02D1168A334001E0968A3340C6
:100BC0000C12012606FA04F41688344013B10CB155
:100BD000012000E0002070BDF0B50346002400268F
:100BE0000025002040F66A17B94200D100BF184620
:100BF000C1F3421401F01F06012707FA06F5012C84
:100C000001D10C3004E0022C01D1103000E014308E
:100C10001AB107682F43076002E00768AF43076017
:100C2000F0BD00002DE9FF4705460E460024A14611
:100C300000BFA046B08900B100BF2C8A24F4405404
:100C4000F08804432C82AC8941F20C608443B08864
:100C500031890843718908430443AC81AC8A24F488
:100C60004074B0890443AC826846FFF72BFD2048EE
:100C7000854202D01F48854202D1DDF80C9001E088
:100C8000DDF80890A88900F4004040B109EBC900E4
:100C900000EB091031684900B0FBF1F707E009EB00
:100CA000C90000EB091031688900B0FBF1F764203E
:100CB000B7FBF0F004012009642101FB1078A8893A
:100CC00000F4004040B1322000EBC800B0FBF1F06E
:100CD00000F00700044308E0322000EB0810642114
:100CE000B0FBF1F000F00F0004432C81BDE8FF875A
:100CF000001001400014014001468888C0F308003C
:100D00007047C1F308028280704700BFFEE700BF52
:100D1000FEE700001CB501212020FFF7B3FC0120F5
:100D20008DF8040000208DF806004FF480700090CC
:100D300002208DF8070003208DF80500694604485D
:100D4000FFF7E4FB00BF00200249086000BF1CBDA4
:100D500000140240A082424210B502460B46002415
:100D6000002104E0505C2044C4B2481CC1B2994246
:100D7000F8DBC4F58070C0B210BD704710B500201C
:100D800000F0BAFB002000F049FB01240CE0C4EBAA
:100D9000C402074800EB421001880023224618468F
:100DA00000F05CFA601CC4B20D2CF0DB10BD00003A
:100DB000BE00002030B505460C46601EC1B2284674
:100DC000FFF7CAFF291911F8011C884201D101203F
:100DD00030BD0020FCE700001CB501213020FFF7EA
:100DE00051FC01208DF8040000208DF806004FF41E
:100DF000C040009001208DF8070003208DF8050009
:100E000069461348FFF782FB4FF4C06000906946C3
:100E10001048FFF77BFB00BF4FF400710D48FFF750
:100E2000E2FB00BF00BF4FF480610A48FFF7DBFB25
:100E300000BF00BF4FF400510548FFF7D4FB00BFCF
:100E400000BF4FF480410248FFF7CDFB00BF1CBD3F
:100E500000100240001402404FF4A060FFF706FCAF
:100E60005D48FFF72FFC5C4840686422B0FBF2F15C
:100E7000481EB0F1807F00D31BE0481E4FF0E022F7
:100E8000506150170F22002807DA13071D0E534B2D
:100E900000F00F04241F1D5503E013071C0E504BD8
:100EA0001C5400BF00204FF0E02290610720106129
:100EB00000BF0520FFF7B0FA00F09AF8FFF78CFFAB
:100EC000FFF728FF4FF4165000F006FD4548FFF7E6
:100ED00001FDFFF753FF7EE000BF4FF40071424871
:100EE000FFF781FB00BF00BF4FF480613E48FFF772
:100EF0007AFB00BF00BF4FF400513C48FFF773FB83
:100F000000BF00BF4FF480413848FFF76CFB00BFC3
:100F100000BF4FF400713448FFF763FB00BF00BF10
:100F20004FF480613048FFF75EFB00BF00BF4FF415
:100F300000512E48FFF757FB00BF00BF4FF4804120
:100F40002A48FFF750FB00BF3220FFF765FA00BFC9
:100F50004FF400712448FFF746FB00BF00BF4FF479
:100F600080612148FFF73DFB00BF3220FFF754FAB4
:100F700000BF4FF480611C48FFF735FB00BF00BF86
:100F80004FF400511948FFF72CFB00BF3220FFF748
:100F900043FA00BF4FF400511448FFF724FB00BF91
:100FA00000BF4FF480411148FFF71BFB00BF322008
:100FB000FFF732FA00BF4FF480410C48FFF713FBF4
:100FC00000BF00BF4FF400710748FFF70AFB00BFE6
:100FD0003220FFF721FA7FE7400C002018ED00E0F7
:100FE00000E400E0BC0000200014024000100240B9
:100FF0001CB501210846FFF745FB4FF480700090B7
:1010000003208DF8050002208DF8040000208DF8E3
:10101000060001208DF8070069461248FFF776FAAE
:1010200000214FF48000FFF7C1FB01210420FFF7EE
:1010300029FB4FF40070009003208DF8050002207A
:101040008DF8040000208DF8060001208DF80700BF
:1010500069460548FFF75AFA4FF040510020FFF764
:10106000B3FB1CBD000002400008024070B51348ED
:10107000C0781249897840EA012631460F48FFF7C7
:1010800099FE08B9002070BD0C4880790B49497958
:1010900040EA012500240DE0094830F83400A84258
:1010A00006D1074901EBC401486880470120EAE7FF
:1010B000601CC4B2142CEFDB0020E4E73E0B0020E0
:1010C00000000020704770477047000010B5494885
:1010D000007800283BD14848FFF70EFE4749484AB0
:1010E000128888544648008880B908460078EE285F
:1010F0000CD00020424908803E4908704FF48071AE
:101100003E48FFF7E4F84FF0FF3010BD3C48008840
:10111000012810D139484078EE280CD000203849F9
:101120000880344908704FF480713448FFF7CFF8D5
:101130004FF0FF30E9E7324801880088401C304A10
:101140001080002953D001202A4908704FE02C4814
:10115000008804280CDA2848FFF7CEFDC1B22848E1
:1011600002880088401C264B1880244881543EE0A9
:101170002148FFF7C1FDC2B2214801880088401C08
:101180001F4B18801D484254C0781C49897840EA9A
:10119000012019460988884212D1FFF767FFC4B2BF
:1011A000002017490880134908704FF480711348D4
:1011B000FFF78DF80CB10120A7E74FF0FF30A4E74F
:1011C0000E48C0780D49897840EA01200C49098809
:1011D00088420CDA00200A490880064908704FF45A
:1011E00080710648FFF773F84FF0FF308DE700205D
:1011F0008BE70000A8000020001001403E0B0020FB
:10120000A6000020FEB505460E4610A207CA8DE8CE
:1012100007008DF804601048C0798DF807000E486B
:10122000007A8DF808008DF809500A216846FFF70A
:1012300093FD8DF80A00002405E01DF8040000F07D
:10124000A9FB601CC4B20B2CF7DBFEBDEEEE000B5D
:1012500000180200000000003E0B00202DE9FE43B4
:1012600006460C461746984610A207CA8DE80700A6
:101270008DF804808DF80770E0B28DF80800200A20
:101280008DF809008DF80A600B216846FFF764FDB0
:101290008DF80B00002505E01DF8050000F07AFB35
:1012A000681CC5B20C2DF7DBBDE8FE83EEEE000C2A
:1012B00000180C0000000000FEB505460E4617465B
:1012C0000DA207CA8DE807008DF804708DF807603D
:1012D0008DF8085009216846FFF73EFD8DF809009A
:1012E000002405E01DF8040000F054FB601CC4B2AB
:1012F0000A2CF7DBFEBD0000EEEE000A0018090024
:1013000000000000FEB505460E460CA207CA8DE897
:1013100007008DF804608DF8075008216846FFF734
:101320001BFD8DF80800002405E01DF8040000F006
:1013300031FB601CC4B2092CF7DBFEBDEEEE0009E8
:10134000001805000000000030B585B0142208A187
:101350006846FEF78AFF1225002405E01DF8040008
:1013600000F018FB601C84B2AC42F7DB05B030BD66
:10137000EEEE001300580112344501010200000096
:1013800000060000FEB505460E4617460DA207CA28
:101390008DE807008DF804708DF807608DF808500F
:1013A00009216846FFF7D8FC8DF80900002405E004
:1013B0001DF8040000F0EEFA601CC4B20A2CF7DB42
:1013C000FEBD0000EEEE000A00180A00000000005A
:1013D0003EB505460DA207CA8DE807008DF80450FA
:1013E0000D48C0798DF8070008216846FFF7B4FC66
:1013F0008DF80800002405E01DF8040000F0CAFA8A
:10140000601CC4B2092CF7DB3EBD0000EEEE000903
:1014100000180B00000000003E0B00203EB5054602
:101420000DA207CA8DE807008DF804500D484078DA
:101430008DF8070008216846FFF78EFC8DF808003C
:10144000002405E01DF8040000F0A4FA601CC4B2FA
:10145000092CF7DB3EBD0000EEEE00090018060087
:1014600000000000BC000020FEB505460E461746F1
:101470000DA207CA8DE807008DF804708DF807608B
:101480008DF8085009216846FFF766FC8DF80900C1
:10149000002405E01DF8040000F07CFA601CC4B2D2
:1014A0000A2CF7DBFEBD0000EEEE000A0018040077
:1014B00000000000FEB505460E460CA207CA8DE8E6
:1014C00007008DF804608DF8075008216846FFF783
:1014D00043FC8DF80800002405E01DF8040000F02E
:1014E00059FA601CC4B2092CF7DBFEBDEEEE000910
:1014F00000180800000000003EB505460DA207CA0E
:101500008DE807008DF804500D4800788DF807002D
:1015100008216846FFF720FC8DF80800002405E04C
:101520001DF8040000F036FA601CC4B2092CF7DB89
:101530003EBD0000EEEE00090018030000000000B0
:10154000BC00002070B55B48057AC479601EC4B247
:101550000DB90025A7E0012D24DB1F2D22DC01257C
:101560005448417AC4EBC402534800EB421080F85F
:1015700026105048807A4F49C97A40EA0121C4EBCD
:10158000C4024D4800EB421041854A48007B49495E
:10159000497B40EA0121C4EBC402474800EB4210FA
:1015A000018580E0202D1DD102254248417AC4EBFF
:1015B000C402414800EB421001733E48807A3D4925
:1015C000C97A40EA0121C4EBC4023B4800EB421057
:1015D000C1813848017BC4EBC402374800EB42109C
:1015E000017460E0212D1DD103253248417AC4EBFE
:1015F000C402314800EB421081712E48807A2D4997
:10160000C97A40EA0121C4EBC4022B4800EB421026
:1016100001812848017BC4EBC402274800EB42103B
:10162000817240E0222D01D104253CE0232D11D10F
:1016300005252048417AC4EBC4021F4800EB421044
:10164000C1741C48817AC4EBC4021B4800EB4210F1
:10165000017528E0242D09D106251648417AC4EBEE
:10166000C402154800EB421081741CE0252D01D105
:10167000062518E0262D13D10921062500200CE0AF
:101680000C4A535CC4EBC4060B4A02EB46121632FA
:101690001354421CD0B24A1CD1B21028F0DB02E035
:1016A000272D00D10625034801790120FFF7AAFD67
:1016B00070BD00003E0B0020BE00002070B52D481C
:1016C000C479601EC4B22B48807AC0B92948007A18
:1016D0002849497A40EA0121C4EBC402264800EBBC
:1016E0004210018023480379C279C4EBC405224823
:1016F00000EB451001880020FFF7B0FD38E01D48E1
:10170000807A012818D11B48007A1A49497A40EAA0
:101710000121C4EBC402184800EB42104180154877
:101720000379C279C4EBC405134800EB4510418826
:101730000120FFF793FD1BE00E48807A022817D1A5
:101740000C48007A0B49497A40EA0121C4EBC402F3
:10175000094800EB4210818006480379C279C4EB46
:10176000C405054800EB451081880220FFF776FD8F
:1017700070BD00003E0B0020BE00002010B5034BE2
:101780001A79D979187AFFF797FD10BD3E0B002022
:1017900010B50548C079012800D000BF024A117970
:1017A000D079FFF7AFFD10BD3E0B002010B5034B05
:1017B0001A79D979187AFFF7E5FD10BD3E0B0020A4
:1017C00010B502490879FFF703FE10BD3E0B00205B
:1017D00010B50448C0790449487002490879FFF7F8
:1017E0001DFE10BD3E0B0020BC0000207047000015
:1017F00070B52148C579681EC5B21F48007A012816
:101800002FD1002424E00021C5EBC5021B4800EBCA
:101810004210263004EB440200F812100221C5EBFE
:10182000C502164800EB4210263004EB440200EBE0
:10183000420041803221C5EBC502104800EB421046
:10184000263004EB440200EB42008180601CC4B2ED
:101850001F2CD8DB08480279C1790120FFF704FE6C
:1018600009E00548007A022805D103480279C179C8
:101870000220FFF7F9FD70BD3E0B0020BE000020E6
:1018800010B50748C079074908700846007808B9BC
:101890000220487002490879FFF72EFE10BD0000B3
:1018A0003E0B0020BC00002010B50A48C07901287A
:1018B00005D1084801790120FFF7FCFD08E0054843
:1018C000C079022804D1034801790220FFF7F2FD14
:1018D00010BD00003E0B002010B588B00446012169
:1018E0000846FEF7CFFE01211020FEF7DBFE07229F
:1018F00009212648FEF752FE07220A212348FEF757
:101900004DFE02208DF81C0000208DF81E004FF4C3
:10191000C060069001208DF81F0003208DF81D0087
:1019200006A91A48FEF7F2FD02940020ADF8140053
:101930000C20ADF812000020ADF81000ADF80E003C
:10194000ADF80C0002A91248FFF76CF925208DF8BC
:10195000040001208DF8070002208DF805008DF8A5
:10196000060001A8FEF746FE40F225510848FFF7A1
:10197000E1F8012240F225510548FFF72DF9012138
:101980000348FFF7E6F808B010BD00000000024071
:101990000010014010B5044600BF80210548FFF744
:1019A000E4F80028F9D0A1B20248FFF7AAF92046CE
:1019B00010BD0000001001404FF04070E1EE100A31
:1019C00070470000E419000800000020BC0000007F
:1019D000C4010008A01A0008BC000020F411000097
:1019E000E0010008011000007B0D0008021000005B
:1019F00045150008031000008118000804100000BD
:101A0000F1170008051000009117000806100000EB
:101A1000D117000807100000ED170008081000009B
:101A2000A9180008091000007D1700080A1000001E
:101A3000AD1700080B100000C11700080C100000C3
:101A4000BD1600080D100000C51000080E100000A3
:101A5000C71000080F100000C91000080150000056
:101A60004913000807500000C503000800000000EB
:101A70000000000000000000000000000000000066
:101A80000000000000000000000000000000000056
:101A90000001020304010203040607080900000014
:040000050800018965
:00000001FF
