:020000040800F2
:10000000E80700203D020008E7080008DF080008B4
:10001000E308000871060008930E000800000000C5
:10002000000000000000000000000000D90A0008E5
:10003000750600080000000075090008090C00089A
:10004000570200085702000857020008570200082C
:1000500057020008570200089106000857020008DE
:10006000C5060008F10600081D0700085702000831
:1000700057020008570200085702000857020008FC
:1000800057020008570200085702000857020008EC
:1000900057020008570200085702000857020008DC
:1000A00057020008570200085702000857020008CC
:1000B00057020008570200085702000857020008BC
:1000C00057020008570200085702000857020008AC
:1000D00057020008910C0008570200085702000858
:1000E000570200085702000857020008570200088C
:1000F000570200085702000857020008570200087C
:10010000570200085702000857020008570200086B
:10011000570200085702000857020008570200085B
:10012000570200085702000857020008570200084B
:10013000570200085702000857020008570200083B
:10014000570200085702000857020008570200082B
:10015000570200085702000857020008570200081B
:10016000570200085702000857020008570200080B
:1001700057020008570200085702000857020008FB
:10018000570200085702000800F002F800F047F894
:100190000AA090E8000C82448344AAF10107DA45E2
:1001A00001D100F03CF8AFF2090EBAE80F0013F0ED
:1001B000010F18BFFB1A43F0010318470015000098
:1001C00020150000103A24BF78C878C1FAD8520729
:1001D00024BF30C830C144BF04680C6070470000C1
:1001E0000023002400250026103A28BF78C1FBD840
:1001F000520728BF30C148BF0B607047642900F028
:10020000A980782900F0E280732900F0D2810020D3
:1002100070471FB501F030FA1FBD10B510BD00F0DA
:10022000F7F91146FFF7F5FF00F034FF00F015FA7B
:1002300003B4FFF7F2FF03BC00F02DFE094880472E
:1002400009480047FEE7FEE7FEE7FEE7FEE7FEE7B8
:10025000FEE7FEE7FEE7FEE704480549054A064BD0
:1002600070470000110C000889010008E801002017
:10027000E8070020E8030020E803002070470000A2
:100280000FB4044910B503AA029800F097F910BC06
:100290005DF814FB940000202DE9F0410E46044661
:1002A000002020622046E168884730B3252805D029
:1002B000D4E901219047206A401CF2E7E16820461A
:1002C00000278847050018D0A5F14100192802D859
:1002D00020354FF400673246294620462760FFF755
:1002E0008DFF40B1012804D0F61D26F00706083620
:1002F000D8E7361DD6E72846DAE7206ABDE8F08160
:1003000070B50C460546012A05D02878800600D530
:10031000EA69002302E0012305E05B1C934202D25C
:10032000E05C0028F9D1A869E618C01AA861286A1B
:10033000184428622846AFF3008004E0D5E9012183
:1003400014F8010B9047B442F8D32846AFF300806D
:1003500070BD00002DE9F0410646002410687529A3
:10036000314616A510D0AFF30080002802DA4042D3
:1003700013A507E031688A0701D512A502E04907F5
:1003800004D511A5012401E0AFF3008000210A2269
:1003900006F1240709E0B0FBF2FCB0FBF2F302FB2C
:1003A0001C00303078541846491C0028F3D12346ED
:1003B0002A463046BDE8F04100F090B80000000049
:1003C0002D0000002B0000002000000070B5044646
:1003D0000D4621461068AFF300802188090502D53B
:1003E0000F4A7A4402E00E4A7A440E32002104F1A8
:1003F000240305E000F00F060009965D5E54491CD9
:100400000028F7D120780023000704D5702D02D0F2
:1004100009B1022311322046BDE8704000F05EB8F9
:10042000AE12000010B5203AC0F00B80B1E81850B1
:10043000203AA0E81850B1E81850A0E81850BFF4CE
:10044000F5AF5FEA027C24BFB1E81850A0E818506D
:1004500044BF18C918C0BDE810405FEA827C24BFC1
:1004600051F8043B40F8043B08BF7047D20728BF4F
:1004700031F8023B48BF11F8012B28BF20F8023B9E
:1004800048BF00F8012B70474FF0000200B513463B
:1004900094469646203922BFA0E80C50A0E80C50A4
:1004A000B1F12001BFF4F7AF090728BFA0E80C5055
:1004B00048BF0CC05DF804EB890028BF40F8042B4E
:1004C00008BF704748BF20F8022B11F0804F18BFBB
:1004D00000F8012B70477047704770472DE9F047CF
:1004E0000D4699469246044600F1240801688806A4
:1004F00004D5E06921F01001216000E00120A8424C
:1005000001DD471B00E00027A1697A1902EB090011
:10051000081AA0612078C00602D42046AFF30080FC
:10052000002608E0D4E901211AF806009047206A65
:10053000401C761C20624E45F4DB2078C0060AD5AC
:100540002046AFF3008006E0D4E901213020904737
:10055000206A401C2062381EA7F10107F4DC07E086
:10056000D4E9012118F805009047206A401C206258
:10057000281EA5F10105F3DC2046AFF300802078AA
:10058000000602D50220BDE8F0870120FBE710B588
:10059000436913B1AFF3008001E0FFF7B1FE012022
:1005A00010BD127800F124010A7000224A70012265
:1005B000EDE711684FF0FF32E9E70000074B70B537
:1005C0000D467B4400F011F80446284600F088FCF4
:1005D00010B14FF0FF3070BD204670BD2309000000
:1005E00001694A1C02610878704700B58FB0CDE9F7
:1005F00001310021059105497944CDE903101146E7
:100600006846FFF749FE0FB000BD0000E5FFFFFFA1
:10061000754600F029F8AE4605006946534620F0BD
:100620000700854618B020B5FFF716FEBDE820404C
:100630004FF000064FF000074FF000084FF0000B9E
:1006400021F00701AC46ACE8C009ACE8C009ACE851
:10065000C009ACE8C0098D4670470446AFF300807E
:100660002046FFF7E5FD00000048704784010020A8
:1006700000BFFEE77047000001B50449009808601C
:1006800000BF024800680028FBD108BD840000209C
:1006900010B5012000F05EF860B1084808490978FB
:1006A00041F00101064A117000BF0100A0F10100F4
:1006B000FBD100BF012000F047F810BD802C800066
:1006C0008800002010B5084C0848007840F002006F
:1006D0000649087000BF2000A4F10104FBD10420EA
:1006E00000F032F810BD0000802C8000880000204F
:1006F00010B5084C0848007840F00400064908701E
:1007000000BF2000A4F10104FBD1082000F01CF878
:1007100010BD0000802C80008800002010B5084C1F
:100720000848007840F008000649087000BF200023
:10073000A4F10104FBD1102000F006F810BD000068
:10074000802C80008800002001490860704700006C
:10075000143C014001460020034A12680A400AB1D5
:10076000012000E000207047143C01400021234993
:100770008279002A3AD00A46126803689A430B46E7
:100780001A600A1D126803689A430B1D1A600279E9
:1007900011440A6803681A430A60184A083212684A
:1007A00003689A43154B08331A601A1D12680368D0
:1007B0009A43124B0C331A604279102A0ED11A1F39
:1007C000126803681A430D4B08331A601A1D126829
:1007D00003681A43094B0C331A600DE0074942794C
:1007E00011440A6803681A430A6005E0027911445B
:1007F0000A6803689A430A6070470000003C0140A1
:10080000F0B50A4600210023002400BF3DE0012589
:1008100005FA01F3156805EA03049C4234D1056822
:100820004F000326BE40B543056015794E00B54024
:100830000668354305601579012D02D01579022D22
:1008400016D185684F000326BE40B54385605579B3
:100850004E00B540866835438560456801268E4068
:10086000B5434560456896798E40B6B235434560DC
:10087000C5684F000326BE40B543C560D5794E001C
:10088000B540C6683543C560491C1029BFD3F0BDCB
:10089000F0B5002300244D07ED0E02FA05F3CE104B
:1008A00000F1200555F826504E07F70E0F26BE40E2
:1008B000B543CF1000F1200646F82750CE1000F1C6
:1008C000200555F8265045EA0304CE1000F1200516
:1008D00045F82640F0BD418370470183704700BF53
:1008E000FEE700BFFEE7704770B5002100230F222E
:1008F000C4781CB3174C246804F4E064C4F5E064C5
:10090000C4F30721C1F10404E3B20A4144789C40D6
:10091000E1B28478144021430C07210E0E4C057877
:100920006155047804F01F050124AC4005786D1171
:10093000AD0005F1E025C5F8004109E0047804F0B8
:100940001F050124AC40054D0678761145F8264078
:1009500070BD00000CED00E000E400E080E100E08C
:1009600002490143024A1160704700000000FA0585
:100970000CED00E07047000029B1064A12680243FE
:10098000044B1A6004E0034A12688243014B1A6068
:10099000704700003038024029B1064A126802430D
:1009A000044B1A6004E0034A12688243014B1A6048
:1009B0007047000044380240F0B5002100220024B6
:1009C000022500260223324F3F6807F00C0121B1B7
:1009D000042905D0082937D105E02E4F076036E0FD
:1009E0002D4F076033E02A4F3F1F3F68C7F3805603
:1009F000274F3F1F3F6807F03F036EB1264FB7FBFD
:100A0000F3F7DFF88CC0ACF1040CDCF800C0CCF3D9
:100A1000881C07FB0CF40CE01E4FB7FBF3F7DFF864
:100A200070C0ACF1040CDCF800C0CCF3881C07FBF0
:100A30000CF4174F3F1F3F68C7F301477F1C7D0031
:100A4000B4FBF5F7076002E0124F076000BF00BF7C
:100A50000F4F3F6807F0F0010909104F7A5C0768F3
:100A6000D74047600A4F3F6807F4E051890A0B4FAF
:100A70007A5C4768D7408760054F3F6807F460415C
:100A8000490B064F7A5C4768D740C760F0BD00004D
:100A9000083802400024F40000127A009C00002074
:100AA00002460020044B186820F0EC6042EA010383
:100AB0001843014B18607047083802400246002076
:100AC000044B186820F0784042EA01031843014BB8
:100AD00018607047083802407047000030B50022A7
:100AE0008B071C0F0F2303FA04F20B4B8C1053F8E7
:100AF00024309343084C8D1044F8253023468C1045
:100B000053F824308C07240F00FA04F42343024CDA
:100B10008D1044F8253030BD083801400CB5002058
:100B2000019000903448006840F4803032490860F9
:100B300000BF3148006800F4003000900198401C6C
:100B40000190009818B90198B0F5A04FF1D12A484A
:100B5000006800F4003010B10120009001E0002096
:100B600000900098012846D123484030006840F0AA
:100B700080502149403108602048006840F44040DE
:100B80001E4908601C48083000681B49083108608D
:100B90000846006840F4004008600846006840F4D9
:100BA000A05008601648091F0860081F006840F040
:100BB0008070091F086000BF0F48006800F00070D7
:100BC0000028F9D040F205700E4908600A48083044
:100BD000006820F0030008490831086008460068F2
:100BE00040F00200086000BF03480830006800F0D1
:100BF0000C000828F8D10CBD0038024000700040FD
:100C000008544007003C024010B500F035F810BD14
:100C100010B51548006840F4700013490860134887
:100C2000006840F001001149086000200F490831B8
:100C300008600E4800680E4908400C4908600D48DD
:100C4000091D0860081F006820F48020091F086043
:100C5000002006490C310860FFF760FF4FF000608C
:100C600001498039086010BD88ED00E0003802407D
:100C7000FFFFF6FE103000240448006820B103484E
:100C80000068401E01490860704700008400002091
:100C900010B540F22551084800F038F8012809D174
:100CA000002400F021FB044640F22551024800F0E8
:100CB00005F800BF10BD00000010014010B5002273
:100CC000002340F66A14A14200D100BF0A12012499
:100CD0009440A3B2DC43048010BD21B1828942F468
:100CE0000052828104E082894DF6FF731A408281AE
:100CF000704702460020B1F5007F00D100BF138885
:100D00000B400BB1012000E00020704770B5024697
:100D1000002400230025002040F66A16B14200D1CD
:100D200000BFC1F3421501F01F03012606FA03F3C9
:100D3000012D02D19689334006E0022D02D1168A98
:100D4000334001E0968A33400C12012606FA04F47F
:100D50001688344013B10CB1012000E0002070BDB2
:100D6000F0B50346002400260025002040F66A174F
:100D7000B94200D100BF1846C1F3421401F01F066A
:100D8000012707FA06F5012C01D10C3004E0022CF2
:100D900001D1103000E014301AB107682F4307600A
:100DA00002E00768AF430760F0BD00002DE9FF4790
:100DB00005460E460024A14600BFA046B08900B1FA
:100DC00000BF2C8A24F44054F08804432C82AC8960
:100DD00041F20C608443B08831890843718908432B
:100DE0000443AC81AC8A24F44074B0890443AC82DF
:100DF0006846FFF7E1FD2048854202D01F48854242
:100E000002D1DDF80C9001E0DDF80890A88900F42B
:100E1000004040B109EBC90000EB091031684900FE
:100E2000B0FBF1F707E009EBC90000EB09103168EE
:100E30008900B0FBF1F76420B7FBF0F00401200952
:100E4000642101FB1078A88900F4004040B13220F1
:100E500000EBC800B0FBF1F000F00700044308E02D
:100E6000322000EB08106421B0FBF1F000F00F001D
:100E700004432C81BDE8FF870010014000140140AD
:100E800001468888C0F308007047C1F308028280D9
:100E9000704700BFFEE700BFFEE700001CB5012160
:100EA0002020FFF769FD01208DF8040000208DF857
:100EB00006004FF48070009002208DF80700032098
:100EC0008DF8050069460448FFF79AFC00BF002032
:100ED0000249086000BF1CBD00140240A0824242CB
:100EE00001464FF0FF30704770B504460D4620466E
:100EF00000F0B0FB70BD30B502460024002304E0D2
:100F0000D05C2044C4B2581CC3B2481E9842F7DCDF
:100F1000C4F58070551815F8015CA84201D1012074
:100F200030BD0020FCE7000000B585B00121112094
:100F3000FFF722FD00208DF8100001200390002013
:100F40008DF8130003A93148FFF75AFC1C200390C9
:100F500003A92F48FFF754FC06208DF8000001205C
:100F60008DF8030002208DF801008DF8020068461C
:100F7000FFF7BAFC08208DF800006846FFF7B4FCC4
:100F800009208DF800006846FFF7AEFC0A208DF8B6
:100F900000006846FFF7A8FC01218803FFF7FCFC6E
:100FA0000121C803FFF7F8FC00210846FFF796FD72
:100FB00002210420FFF792FD03210420FFF78EFD9C
:100FC00004210846FFF78AFD00214FF48040FFF717
:100FD000E3FC1D20019001208DF80A0000208DF80F
:100FE00008000C208DF8090001A8FFF7BFFB0120C5
:100FF000FFF7AAFB0420FFF7A7FB0820FFF7A4FBDD
:101000001020FFF7A1FB05B000BD0000000002406A
:10101000001002401CB501213020FFF7ADFC01207B
:101020008DF8040000208DF806004FF4C0400090B9
:1010300001208DF8070003208DF80500694613484C
:10104000FFF7DEFB4FF4C060009069461048FFF7E1
:10105000D7FB00BF4FF400710D48FFF73EFC00BF07
:1010600000BF4FF480610A48FFF737FC00BF00BFA4
:101070004FF400510548FFF730FC00BF00BF4FF4AC
:1010800080410248FFF729FC00BF1CBD0010024050
:10109000001402404FF4A060FFF762FC5448FFF7D1
:1010A0008BFC534840686422B0FBF2F1481EB0F15B
:1010B000807F00D31BE0481E4FF0E02250615017A4
:1010C0000F22002807DA13071D0E4A4B00F00F0409
:1010D000241F1D5503E013071C0E474B1C5400BF73
:1010E00000204FF0E02290610720106100BF052032
:1010F000FFF7C2FA00F08AF8FFF78CFFFFF7CEFE89
:10110000FFF712FF4FF4165000F046FA38484168D6
:101110003AA0FFF7B5F86AE000BF4FF40071394814
:10112000FFF7DBFB00BF00BF4FF480613548FFF7DE
:10113000D4FB00BF00BF4FF400513348FFF7CDFB95
:1011400000BF00BF4FF480412F48FFF7C6FB00BF30
:1011500000BF4FF400712B48FFF7BDFB00BF00BF7D
:101160004FF480612748FFF7B8FB00BF00BF4FF482
:1011700000512548FFF7B1FB00BF00BF4FF480418D
:101180002148FFF7AAFB00BF3220FFF775FA00BF26
:101190004FF400711B48FFF7A0FB00BF00BF4FF4E6
:1011A00080611848FFF797FB00BF3220FFF764FA11
:1011B00000BF4FF480611348FFF78FFB00BF00BFF3
:1011C0004FF400511048FFF786FB00BF3220FFF7B5
:1011D00053FA00BF4FF400510B48FFF77EFB00BFEE
:1011E00000BF4FF480410848FFF775FB00BF93E74D
:1011F0007401002018ED00E000E400E025640D0A11
:101200000000000000140240001002401CB5012143
:101210000846FFF7B1FB4FF48070009003208DF873
:10122000050002208DF8040000208DF80600012042
:101230008DF8070069461248FFF7E2FA00214FF4E3
:101240008000FFF72DFC01210420FFF795FB4FF4F0
:101250000070009003208DF8050002208DF8040036
:1012600000208DF8060001208DF80700694605482A
:10127000FFF7C6FA4FF040510020FFF71FFC1CBDDE
:10128000000002400008024070B51548C0781449BB
:10129000897840EA012631461148FFF72CFE08B94B
:1012A000002070BD0E4880790D49497940EA01253A
:1012B000002410E00B4830F83400A84209D1A6F110
:1012C000080290B2074A02EBC40251688847012025
:1012D000E7E7601CC4B2102CECDB0020E1E7000063
:1012E000AC0000200000002010B55648007810BB6C
:1012F0005548FFF7C5FD5549554A12888854084698
:101300000078EE280BD00020514908804D49087024
:10131000C8214E48FFF7B8F84FF0FF3010BD4C48D9
:1013200001880088401C4A4A1080002902D0012010
:101330004449087083E04648008804281CDA434882
:101340004078EE280BD00020414908803D490870C4
:10135000C8213E48FFF798F84FF0FF30DEE73A48E3
:10136000FFF78EFDC1B23A4802880088401C384B16
:1013700018803648815462E03348FFF781FDC1B2DE
:10138000334802880088401C314B18802F48815414
:10139000C0782E49897840EA012019460988884298
:1013A0004CD1FFF771FFC4B20020294908802549BC
:1013B0000870C8212548FFF767F8FCB100BF4FF45B
:1013C00000712448FFF787FA00BF00BF4FF4806127
:1013D0002048FFF780FA00BF00BF4FF400511E48BD
:1013E000FFF779FA00BF00BF4FF480411A48FFF7BA
:1013F00072FA00BF3220FFF73FF919E000BF012069
:101400001649086000BF00BF81021248FFF763FA67
:1014100000BF3220FFF730F900BF00200F490860FD
:1014200000BF00BF4FF480610A48FFF756FA00BFC3
:101430000CB1012072E74FF0FF306FE700BF0020D2
:101440006CE700008200002000100140AC0000208A
:10145000800000200014024000100240A08242429E
:1014600070B586B0054614220EA101A8FEF7DAFF7A
:1014700012264DB1104B5E2210A113A0FEF700FF03
:1014800029461AA0FEF7FCFE002406E001A8015D33
:1014900019A0FEF7F5FE601C84B2B442F6DB06B07C
:1014A00070BD0000EEEE001300580112344501013A
:1014B00002000000000600008216000866756E63D8
:1014C0006F64652E630000003C3C46696C653A25FC
:1014D0007320204C696E653A2564202046756E6342
:1014E00074696F6E3A25733E3E2000006D73676C21
:1014F000656E2025640A0000307825582000000021
:1015000070B5044621460EA0FEF7BAFE1648C17912
:1015100016A0FEF7B5FE1448017A18A0FEF7B0FE3B
:10152000002508E0104A05F10900115C17A0FEF73C
:10153000A7FE681CC5B2A01EA842F3DC70BD000067
:1015400046756E6374696F6E3A73657453656E6445
:101550004368616E6E656C3E3E6C656E6774683A9A
:101560002025640A00000000AC0000203C436861B4
:101570006E6E656C3A202564203E0A0043617465F6
:10158000676F72793A2025640A0000003078255888
:10159000200000007047000010B588B0044601210B
:1015A0000846FFF7E9F901211020FFF7F5F90722B6
:1015B00009212648FFF76CF907220A212348FFF783
:1015C00067F902208DF81C0000208DF81E004FF4F2
:1015D000C060069001208DF81F0003208DF81D00CB
:1015E00006A91A48FFF70CF902940020ADF8140080
:1015F0000C20ADF812000020ADF81000ADF80E0080
:10160000ADF80C0002A91248FFF7D0FB25208DF899
:10161000040001208DF8070002208DF805008DF8E8
:10162000060001A8FFF760F940F225510848FFF7CE
:1016300045FB012240F225510548FFF791FB0121AE
:101640000348FFF74AFB08B010BD0000000002404D
:101650000010014010B5044600BF80210548FFF787
:1016600048FB0028F9D0A1B20248FFF70EFC204643
:1016700010BD0000001001404FF04070E1EE100A74
:10168000704773656E6445717569706D656E7449F8
:101690006E666F0030313233343536373839414277
:1016A00043444546403058003031323334353637C4
:1016B000383961626364656640307800DC16000882
:1016C00000000020AC000000C401000888170008DA
:1016D000AC0000203C070000E00100080110000001
:1016E0009515000802100000011500080310000005
:1016F000951500080410000095150008051000005D
:101700009515000806100000951500080710000048
:101710009515000808100000951500080910000034
:10172000951500080A100000951500080B10000020
:10173000951500080C100000951500080D1000000C
:10174000951500080E1000009515000801500000C6
:101750006114000807500000951500080000000003
:101760000000000000000000FFFFFFFF000000007D
:10177000000000000000000000000000010203045F
:08178000010203040607080939
:040000050800018965
:00000001FF
